:1009FD0001690A016A00016B00016896016E3201FE
:100A0D006F00100857203D203030302E306D000023
:100A1D0000000000101854203D203030302E30439F
:100A2D00000000000000102848203D203135302EF8
:100A3D00306D00000000000010384C203D20303596
:100A4D00302E306D000000000000104846756C6CB3
:100A5D00203D20333834722F6D00000010584E6F3A
:100A6D007720203D20303030722F6D000000026C59
:020A7D00000077
:0B0DD700EF1FAC0670011E4C70F622EE
:100CD700E4FDD2A37F08FE120DD7C2A37F507E008A
:100CE700120DD7D2A37F0E7E00120DD7A2A3E43335
:080CF700FD7F147E00020DD701
:100CFF00E4FB7D08C2A3EBC313FBD2A330A30343D2
:0D0D0F0003807F047E00120DD7DDE9AF03E5
:010D1C0022B4
:020D7200AD07CB
:100D74007B08C2A3ED1392A37F057E00120DD7D288
:070D8400A3EDC313FDDBEB3F
:010D8B002245
:100B0000E4FAFFFDFCF573F572F571F570C28C1215
:100B10000CD77FCC120D727F44120D72120CD77F4E
:100B2000CC120D727FBE120D72120CFFAA07120CAE
:100B3000FFAD07EDFCEAFDAE04FFE412032AE4FB7F
:100B4000FA7980783D1201068F738E728D718C70E8
:100B5000E4FFFE7D207C41AB73AA72A971A87012DC
:100B60000106E4FBFAF9783F120015D28C120363F8
:010B70002262
:100CAA007F38120D1D7F057E00120CBF7F38120D92
:050CBA001D7F057E0016
:100CBF00E4FDFCC3ED9FEC9E500DE4FB0BBB78FCF9
:070CCF000DBD00010C80ECDB
:010CD60022FB
:100DA400C2A0D2A1D2A27F017E00120CBFAF80C22A
:010DB400A29C
:010DB500221B
:100D1D00AA07120DA4EF20E7F9C2A0C2A1C2A28AB0
:0D0D2D0080D2A27F017E00120CBFC2A22264
:100D3A00AA07120DA4EF20E7F9D2A0C2A2C2A18A83
:0D0D4A0080D2A27F017E00120CBFC2A22247
:100D5700120CAA120CAA7F01120CB80F120CB87F42
:0B0D67000C120D1D7F057E00020CBF6A
:090BCF007A0079287B00E4FDFFA7
:0A0BD8008F728D738B748A75897615
:100BE200E4F577E5737008E5724480FF120D1DE5A8
:100BF20073B40108E57244C0FF120D1DE4F577AB32
:100C020074AA75A9768577827583001203E4FF12B0
:100C12000D3A7F017E00120CBF0577E577C3941071
:020C220040DDB3
:010C240022AD
:100D8C00E4FDFCC3ED9FEC9E500DE4FB0BBB78FC2B
:070D9C000DBD00010C80EC0D
:010DA300222D
:020B7100AA07D1
:100B7300E4F573F574C293C292EAC454F0FAE4F54F
:100B830071F572309003437401EA339291D2937FEB
:100B9300017E00120D8CC293120D8CEA25E0FAE55A
:100BA3007425E0F574E57333F5730572E57270022D
:100BB3000571C3940CE571940040C8D292E573C3E8
:0B0BC30013F573E57413F574AE73FFB7
:010BCE002204
:10072F00E4FF120B71AC06AD07E412032AE4FBFAE7
:10073F00794878421201067B007AF0797F7845126A
:10074F00020F7B9A7A9979CC7842120106E4FBFA70
:10075F007920784012020F120363AB07AA067C03BD
:10076F007DE8120411EF2430F50C7C007D64AF039B
:10077F00AE021204117C007D0A120411ED2430F533
:10078F000D7C007D0AAF03AE021204117C007D0ABE
:10079F00120411ED2430F50EAE02AF037C007D0A7A
:1007AF00120411ED2430F510120B00AB07AA067CD2
:1007BF00037DE8120411EF2430F51C7C007D64AF3B
:1007CF0003AE021204117C007D0A120411ED2430D5
:1007DF00F51D7C007D0AAF03AE021204117C007D73
:1007EF000A120411ED2430F51E7C007D0AAF03AE12
:1007FF0002120411ED2430F520D3EB9490EA94010A
:10080F00400CC294056DE56D7002056C8007D294A3
:10081F00E4F56CF56D7527417A007908120BD37BDF
:0C082F00007A0079187D01E4FF020BD86C
:10083B0020B1167F0A7E00120CBF20B109E568C3F8
:10084B0094C85002056830B1FD20B2167F0A7E00B5
:10085B00120CBF20B209E568D3956E4002156830C3
:10086B00B2FDE56875F00AA4FBAAF07C037DE8FFF6
:10087B00AE02120411EF2430F52C7C007D64AF0323
:10088B00AE021204117C007D0A120411ED2430F526
:10089B002D7C007D0AAF03AE021204117C007D0A91
:1008AB00120411ED2430F52EAE02AF037C007D0A4D
:1008BB00120411ED2430F530754742120BCF7B003B
:0B08CB007A0079387D01E4FF020BD8B1
:1008D60020B1167F0A7E00120CBF20B109E56EC357
:1008E60095685002056E30B1FD20B2167F0A7E0073
:1008F600120CBF20B209E56ED394014002156E308A
:10090600B2FDE56E75F00AA4FBAAF07C037DE8FF54
:10091600AE02120411EF2430F53C7C007D64AF0377
:10092600AE021204117C007D0A120411ED2430F58A
:100936003D7C007D0AAF03AE021204117C007D0AE5
:10094600120411ED2430F53EAE02AF037C007D0AA1
:10095600120411ED2430F540754743120BCF7B008E
:0B0966007A0079387D01E4FF020BD815
:100A8000E569602424E6601824EF600C24C7701D1B
:100A900075700175718080157570007571C0800D5D
:100AA0007570007571738005E4F570F571AE70AF07
:100AB000717C007D64120411EF2430F55FAE70AFDD
:100AC000717C007D0A1204117C007D0A120411ED74
:100AD0002430F560AE70AF717C007D0A120411ED18
:100AE0002430F5617567447B007A007948E4FDFFA6
:100AF000120BD87B007A0079587D01E4FF020BD8F5
:100C760020B0157F0A7E00120CBF20B008056BE578
:100C86006B5403F56B30B0FDE56B14600D14600D0D
:100C960014600D2403700C02072F02083B0208D6CD
:040CA600120A80228C
:10047400E4FF120B71AC06AD07E412032AE4FBFAA5
:1004840079A078401201067B007AF0797F784512D2
:10049400020F7B9A7A9979CC7842120106E4FBFA2E
:1004A4007920784012020F1203638F70E570C395B0
:1004B4006E4003020599C2A5AC6EE412032F7BCDF6
:1004C4007ACC79CC783D120106C004C005C006C0C0
:1004D40007AC70E412032FA804A905AA06AB07D041
:1004E40007D006D005D0041202AC5003756964AC81
:1004F4006EE412032F7BCD7ACC79CC783D120106C1
:10050400C004C005C006C007AC70E412032FA804E1
:10051400A905AA06AB07D007D006D005D00412025D
:10052400AC4037AC6EE412032F7B9A7A99799978B0
:100534003E120106C004C005C006C007AC70E41238
:10054400032FA804A905AA06AB07D007D006D00537
:10055400D0041202AC500375692AAC6EE412032F66
:100564007B9A7A997999783E120106C004C005C035
:1005740006C007AC70E412032FA804A905AA06ABB1
:1005840007D007D006D005D0041202AC50030207EE
:100594002E75691A22E570D39568500302072BD291
:1005A400A5AC68E412032FA804A905AA06AB077F2B
:1005B400337EB37D4C7C431200117433FBFAF9781B
:1005C4003F120106C004C005C006C007AC68E412AF
:1005D400032FD003D002D001D000120015C004C0F4
:1005E40005C006C007AC70E412032FA804A905AA2D
:1005F40006AB07D007D006D005D0041202AC5003D6
:1006040075691AAC68E412032FA804A905AA06ABFD
:10061400077F337EB37D4C7C431200117433FBFAA5
:10062400F9783F120106C004C005C006C007AC68D3
:10063400E412032FD003D002D001D000120015C061
:1006440004C005C006C007AC70E412032FA804A9B7
:1006540005AA06AB07D007D006D005D0041202AC19
:100664004062AC68E412032FA804A905AA06AB07EC
:100674007F337EB37D4C7C431200117466FBFAF920
:10068400783F120106C004C005C006C007AC68E488
:1006940012032FD003D002D001D000120015C004E1
:1006A400C005C006C007AC70E412032FA804A90556
:1006B400AA06AB07D007D006D005D0041202AC506E
:1006C4000375692BAC68E412032FA804A905AA06D4
:1006D400AB077F337EB37D4C7C431200117466FB01
:1006E400FAF9783F120106C004C005C006C007AC81
:1006F40068E412032FD003D002D001D000120015F9
:10070400C004C005C006C007AC70E412032FA804DF
:10071400A905AA06AB07D007D006D005D00412025B
:0A072400AC400775696422E4F56932
:01072E0022A8
:100DC700758901758CFE758A0CD2AFD2A9D28C2297
:03000B00020C25BF
:100C2500C0E0C0D075D000C006C007758CFE758ABF
:100C35000CE5697004D2A4802FE569B46404C2A4EC
:100C45008026056AE56AB46403756A00E56AB4013D
:100C550004C2A48013E5692401FFE433FEE56AB507
:100C65000706E4B50602D2A4D007D006D0D0D0E05E
:010C7500324C
:03000300D2942272
:100DB600120003120D57120DC7120C76120474801E
:010DC600F834
:10000E000203CFE86480F8E933E83360110460F04E
:10001E00ED33EC337009E8FCE9FDEAFEEBFF220458
:10002E0060DED3EB9FEA9EE99DE8C2E78CF0C2F753
:10003E0095F0400CE8CCF8E9CDF9EACEFAEBCFFB1F
:10004E0012039A85D0F05804700320D5B3E80470DB
:10005E00075002B2D50203D992D5EC0460F7E4CC76
:10006E00C0E0C398F8603B94186008400DD0E0FBE8
:10007E000203B1E4FBFAC9FC8028E830E406E4C9C7
:10008E00FBE4CAFCE830E305E4C9CACBFCE854073C
:10009E006010F8C3E913F9EA13FAEB13FBEC13FC47
:1000AE00D8F130F52FC3E49CFCEF9BFFEE9AFEEDEA
:1000BE0099FDD0E0FBEF4E4D4C701222DB03020394
:1000CE00D6EC2CFCEF33FFEE33FEED33FDED30E7D7
:1000DE00EB0203B1EF2BFFEE3AFEED39FDD0E0FB64
:1000EE0050130BBB00030203D9ED13FDEE13FEEF0D
:0800FE0013FFEC13FC0203B137
:10010600EC4D6011E8497017ED33EC3304600DE4F3
:10011600FCFFFEFD22E933E8330470F80203CF1238
:10012600039A58046009E4CC248150062850090239
:1001360003D92840030203D6C0E0EB4A7044B980D5
:1001460006D0E0FB0203C5EF4E701CBD8008EBFF36
:10015600EAFEE9FD80EBE98DF0A4FEE5F00201EF91
:10016600E9CDF9EAFEEBFFEF89F0A4FCE5F0CE89D4
:10017600F0A42EFFE435F0CD89F0A42DFEE435F091
:100186008067EF4E7005BD80D780C3EF8BF0A4ACBF
:10019600F0EE8BF0A42CFCE435F0F8EF8AF0A42CFA
:1001A600E5F038FCE433CB8DF0A42CFCE5F03BF80D
:1001B600EE8AF0A42CFCE5F038F8E433CF89F0A4FD
:1001C6002CFCE5F038CF3400CE89F0A42FFFE5F003
:1001D6003EFEE433C98DF0A42EFEE5F039CD8AF05B
:1001E600A42FFFE5F03EFEE43DFD33D0E0FB5007D3
:1001F6000BBB000F0203D9EC2CFCEF33FFEE33FEF2
:06020600ED33FD0203B11F
:10020C000203D9EC5D046005E8590470030203CFC6
:10021C0012039A580460F6EC4860F2EC7004FDFE90
:10022C00FF22C860DB2481C85009C39860025006C5
:10023C000203D69850CAF582E9294B4A7005AB8265
:10024C000203C575F0007C1A7880C3EF9BEE9AED23
:10025C0099400DC3EF9BFFEE9AFEED99FDE842F03D
:10026C00DC23ACF0D0E0FFD0E0FED0E0FDAB822090
:10027C00E7101BEB60BAEC2CFCEF33FFEE33FEED1A
:10028C0033FD0203B1E803F830E705C0F075F00068
:10029C00EF2FFFEE33FEED33FD40B830E7C280AAFE
:1002AC0074F8CC6480CCC86480C8F58204604FC3F9
:1002BC00EB9FF5F0EA9E42F0E99D42F0E89C45F098
:1002CC00603C501DE5825FFFE582D313CB5BCBF422
:1002DC002B5582FB50280ABA002409B9002008804B
:1002EC001DE5825BFBE582D313CF5FCFF4C3132FE5
:1002FC005582FF50090EBE00050DBD00010CC3EB6D
:10030C009FF5F0EA9E42F0E99D42F0E89C45F060D2
:09031C0007CC4820E701B3EC22F4
:1003250075F020800E75F010800575F0087D007E53
:10033500007F003392D530D503120466EC334010AC
:10034500EF33FFEE33FEED33FDEC33FCD5F0ED225C
:0E035500E5F0247EA2D513CC92E7CDCEFF2298
:10036300EDD2E7CD33EC3392D524814006E4FFFE92
:10037300FDFC22FCE4CFCECDCC24E0501174FF80F1
:10038300EDC3CC13CCCD13CDCE13CECF13CF04708E
:07039300F030D5DE02046624
:10039A00E9D2E7C933E833F892D5EDD2E7CD33ECA9
:0703AA0033FC5002B2D52222
:1003B100EC30E7100FBF000C0EBE00080DBD0004AD
:1003C1000BEB6014A2D5EB13FCED92E7FD2274FF59
:1003D100FCFDFEFF22E480F8A2D574FF13FC7D80B2
:0303E100E480EFC6
:0300000002097181
:0C097100787FE4F6D8FD7581770209B8A4
:1003E400BB010CE58229F582E5833AF583E02250CE
:1003F40006E92582F8E622BBFE06E92582F8E22218
:0D040400E58229F582E5833AF583E4932231
:10041100BC000BBE0029EF8DF084FFADF022E4CCCF
:10042100F875F008EF2FFFEE33FEEC33FCEE9DEC98
:10043100984005FCEE9DFE0FD5F0E9E4CEFD22EDDE
:10044100F8F5F0EE8420D21CFEADF075F008EF2F28
:10045100FFED33FD4007985006D5F0F222C398FD19
:050461000FD5F0EA22B6
:0E046600C3E49FFFE49EFEE49DFDE49CFC22A7
:10097D00020DB6E493A3F8E493A34003F68001F2CD
:10098D0008DFF48029E493A3F85407240CC8C3337B
:10099D00C4540F4420C8834004F456800146F6DF4A
:1009AD00E4800B01020408102040809009FDE47ED4
:1009BD00019360BCA3FF543F30E509541FFEE4933F
:1009CD00A360010ECF54C025E060A840B8E493A306
:1009DD00FAE493A3F8E493A3C8C582C8CAC583CA31
:1009ED00F0A3C8C582C8CAC583CADFE9DEE780BEE9
:010A7F000076
:00000001FF
