:03000000020E39B4
:0C0E3900787FE4F6D8FD758120020E8061
:100EC5005761746572206C6576656C3A0020006325
:100ED5006D0053746174653A004D616E756C202028
:100EE50020202000204175746F20202020200057ED
:100EF500617465725F483A00202000636D202020F0
:0B0F0500200057617465725F4C3A00D9
:0610D700010A0C010B08E8
:0C10B700C2AF53E71843E70143E7802273
:0910CE0053E77FE4F5E6D2AF22FE
:0B10C3001210B775E64675E6B9002272
:10104400AD07AC06C2AF8CE3EDF5E453E5F843E538
:0C105400011210C31210CED2AFAFE22286
:10109200EE54FEFEF5E3E4F5E453E5F843E503120E
:0510A20010C30210CE96
:10106000AB07AA06C2AF8AE3EBF5E453E5F843E524
:0C107000028DE21210C31210CED2AF228B
:100F8900D293C290C293D291D290C290D291D29070
:100F9900C290C291D290C290D291D290E4FFD290E5
:100FA900C290ED25E0FDA291E43342050FBF08EEA2
:060FB900D293EDFF7E0063
:010FBF00220F
:0B107C007C00E4FF12102B7FDC7E05DF
:0B108700EF1FAC0670011E4C70F6223B
:1010190075F00A8475F00A84E5F02430FDE433FCA8
:021029007F0145
:10102B00AB05C2A5EF24FF92908B80C291D2A57F16
:09103B00017E00121087C2A522FB
:060FC0007BFF7A0E79D2DE
:100FC6008B148A158916AB14AA15A916120AD060B5
:100FD60015FD7C007F0112102B74012516F516E411
:070FE6003515F51580E0222E
:100FED007D0112107C7D3812107C7D0C7C00E4FF9D
:100FFD0012102B7D067C00E4FF12102B7DD07C009F
:0C100D00E4FF12102B7FDC7E0502108730
:100B4C00E50970787D80FCFF12102B7BFF7A0E7903
:100B5C00C5120FC67D8C7C00E4FF12102BE508D368
:100B6C0094094007E5081210198003120FC07D8DFF
:100B7C007C00E4FF12102BE50812101D7D8E7C000A
:100B8C00E4FF12102B7BFF7A0E79D4120FC67DC0B6
:100B9C007C00E4FF12102B7BFF7A0E79D7120FC664
:100BAC007DC67C00E4FF12102B7BFF2002077A0E1F
:100BBC0079DE020C957A0E79E9020C957D807C0029
:100BCC00E4FF12102B7BFF7A0E79F4120FC67D888E
:100BDC007C00E4FF12102BE509B4010E30000B7BF6
:100BEC00FF7A0E79FD120FC680287D887C00E4FF09
:100BFC0012102BE50AD394094007E50A121019804C
:100C0C0003120FC07D897C00E4FF12102BE50A1241
:100C1C00101D7D8A7C00E4FF12102B7BFF7A0F796C
:100C2C0000120FC67DC07C00E4FF12102B7BFF7AF4
:100C3C000F7907120FC6E509B402173000147DC8EE
:100C4C007C00E4FF12102B7BFF7A0E79FD120FC68D
:100C5C0080287DC87C00E4FF12102BE50BD394098F
:100C6C004007E50B1210198003120FC07DC97C00E0
:100C7C00E4FF12102BE50B12101D7DCA7C00E4FF63
:0D0C8C0012102B7BFF7A0F7900120FC62289
:100C99002095237F787E03121087209519209505CA
:100CA900120B4C80F8E5092401FFE433FE7C007D3A
:100CB90003120AE98D0920B3527F787E0312108747
:100CC90020B34820B305120B4C80F8E509B401168E
:100CD900E50AC394645002050A7F007E201210922F
:100CE900AD0A7E20801CE509B4021CE50A14FFE563
:100CF9000BC39F5002050B7F007E22121092AD0B91
:100D09007E221210608004B202D2A520B45D7F78E1
:100D19007E0312108720B45320B405120B4C80F8BF
:100D2900E50964017024E50B2401FFE433FED3E5F2
:100D39000A9FEE6480F87480984002150A7F007E4D
:100D490020121092AD0A7E208019E509B40217E538
:100D59000BD394004002150B7F007E22121092AD36
:0C0D69000B7E22021060200202B2A522C4
:100F4E00300231E508C3950A4006D2A5C2B0800230
:100F5E00D2B0E508D3950B5006C2A5C2B18002D21D
:100F6E00B1E508C3950A5006E508950B5003D2016A
:0B0F7E0022C20122C201D2B1D2B02277
:1010A700758901758C3C758AB0D2A9D28CD2AF22D2
:100D7500E4F513F512F511F510D2A51210A7120F0F
:100D8500ED7F007E201210448F0A7F007E22121014
:100D9500448F0BE50AD39463500DE50B946350071C
:100DA500E50BC3950A4006750A0E750B07E50CC3DE
:100DB500940A5011050C120F89EF250EF50EEE352C
:100DC5000DF50D8063E4F50CAE0DAF0EFC7D0A123A
:100DD5000AE9AC07E4120A1B8F138E128D118C10D1
:100DE500E4FFFEFD7C40AB13AA12A911A81012095D
:100DF50098602D402BE4FFFEFD7CC0AB13AA12A921
:100E050011A8101208077B667A66792678401208C1
:100E1500FB8F138E128D118C10120A4F8F088003D1
:100E2500E4F508E4F50DF50E120B4C120C99120FB2
:040E35004E020DB2AA
:03000B00020F10D1
:100F1000C0E0C0F0C0D0758C3C758AB0050FE50FFD
:100F200075F00584E5F07002B200E50F75F00A84F3
:100F3000E5F07009300104B2968002D296E50FD335
:0E0F400094134003750F00D0D0D0F0D0E032F3
:10080000020ABBE86480F8E933E83360110460F061
:10081000ED33EC337009E8FCE9FDEAFEEBFF22045E
:1008200060DED3EB9FEA9EE99DE8C2E78CF0C2F759
:1008300095F0400CE8CCF8E9CDF9EACEFAEBCFFB25
:10084000120A8685D0F05804700320D5B3E80470EE
:10085000075002B2D5020AC592D5EC0460F7E4CC89
:10086000C0E0C398F8603B94186008400DD0E0FBEE
:10087000020A9DE4FBFAC9FC8028E830E406E4C9DA
:10088000FBE4CAFCE830E305E4C9CACBFCE8540742
:100890006010F8C3E913F9EA13FAEB13FBEC13FC4D
:1008A000D8F130F52FC3E49CFCEF9BFFEE9AFEEDF0
:1008B00099FDD0E0FBEF4E4D4C701222DB03020A93
:1008C000C2EC2CFCEF33FFEE33FEED33FDED30E7F1
:1008D000EB020A9DEF2BFFEE3AFEED39FDD0E0FB77
:1008E00050130BBB0003020AC5ED13FDEE13FEEF20
:0808F00013FFEC13FC020A9D4A
:1008F800020AC5EC5D046005E859047003020ABBEE
:10090800120A86580460F6EC4860F2EC7004FDFEAA
:10091800FF22C860DB2481C85009C39860025006D2
:10092800020AC29850CAF582E9294B4A7005AB827F
:10093800020AB175F0007C1A7880C3EF9BEE9AED3D
:1009480099400DC3EF9BFFEE9AFEED99FDE842F04A
:10095800DC23ACF0D0E0FFD0E0FED0E0FDAB82209D
:10096800E7101BEB60BAEC2CFCEF33FFEE33FEED27
:1009780033FD020A9DE803F830E705C0F075F00082
:10098800EF2FFFEE33FEED33FD40B830E7C280AA0B
:1009980074F8CC6480CCC86480C8F58204604FC306
:1009A800EB9FF5F0EA9E42F0E99D42F0E89C45F0A5
:1009B800603C501DE5825FFFE582D313CB5BCBF42F
:1009C8002B5582FB50280ABA002409B90020088058
:1009D8001DE5825BFBE582D313CF5FCFF4C3132FF2
:1009E8005582FF50090EBE00050DBD00010CC3EB7A
:1009F8009FF5F0EA9E42F0E99D42F0E89C45F060E0
:090A080007CC4820E701B3EC2201
:100A110075F020800E75F010800575F0087D007E60
:100A2100007F003392D530D503120B3EEC334010DA
:100A3100EF33FFEE33FEED33FDEC33FCD5F0ED2269
:0E0A4100E5F0247EA2D513CC92E7CDCEFF22A5
:100A4F00EDD2E7CD33EC3392D524814006E4FFFE9F
:100A5F00FDFC22FCE4CFCECDCC24E0501174FF80FE
:100A6F00EDC3CC13CCCD13CDCE13CECF13CF04709B
:070A7F00F030D5DE020B3E52
:100A8600E9D2E7C933E833F892D5EDD2E7CD33ECB6
:070A960033FC5002B2D5222F
:100A9D00EC30E7100FBF000C0EBE00080DBD0004BA
:100AAD000BEB6014A2D5EB13FCED92E7FD2274FF66
:100ABD00FCFDFEFF22E480F8A2D574FF13FC7D80BF
:030ACD00E480EFD3
:100E4500020D75E493A3F8E493A34003F68001F241
:100E550008DFF48029E493A3F85407240CC8C333AE
:100E6500C4540F4420C8834004F456800146F6DF7D
:100E7500E4800B01020408102040809010D7E47E26
:100E8500019360BCA3FF543F30E509541FFEE49372
:100E9500A360010ECF54C025E060A840B8E493A339
:100EA500FAE493A3F8E493A3C8C582C8CAC583CA64
:100EB500F0A3C8C582C8CAC583CADFE9DEE780BE1C
:0110DD000012
:100AD000BB010689828A83E0225002E722BBFE0224
:090AE000E32289828A83E4932257
:100AE900BC000BBE0029EF8DF084FFADF022E4CCF1
:100AF900F875F008EF2FFFEE33FEEC33FCEE9DECBA
:100B0900984005FCEE9DFE0FD5F0E9E4CEFD22EDFF
:100B1900F8F5F0EE8420D21CFEADF075F008EF2F49
:100B2900FFED33FD4007985006D5F0F222C398FD3A
:050B39000FD5F0EA22D7
:0E0B3E00C3E49FFFE49EFEE49DFDE49CFC22C8
:00000001FF
