:03000000021141A9
:0C114100787FE4F6D8FD75813E0211882D
:10139E00C0F9A4B0999282F880908883C6A1868EF7
:0113AE00003E
:1011CD0002240000041000000000022B0000020C9D
:1011DD000000023500C802330000020800000216AC
:1011ED00000002140000022D000004270000000082
:1011FD00020E000102180000021A0000021C00007D
:10120D00021E0000022000000237003C01260002F1
:0B121D002200000239004C020A000011
:0413AF007FE87E0352
:0B13B300EF1FAC0670011E4C70F6220C
:0913C900853A8C850B8AD2A92219
:05000600D288D2A822FF
:04102C00AB07AA065E
:10103000C3EA648094805010752FBFEB1B70011AB7
:101040006303FF6302FF8003752FFFAD03AC02EC67
:1010500012082B8F3E8E3D8D3C8C3BE4FFFE7DC8FD
:101060007C40AB3EAA3DA93CA83B120720E4FBFA1A
:10107000F9783F12062F120864AA06AB077C277D79
:1010800010AF03AE021208F7749E2FF58274133E60
:10109000F583E493F52F7C277D10AF03AE02120891
:1010A000F77E037FE8CFCDCFCECCCE1208F7749E6B
:1010B0002FF58274133EF583E493F5307C037DE8CD
:1010C000AF03AE021208F77E007F64CFCDCFCECC47
:1010D000CE1208F7749E2FF58274133EF583E493C5
:1010E000547FF5317C007D64AF03AE021208F77EB9
:1010F000007F0ACFCDCFCECCCE1208F7749E2FF54D
:101100008274133EF583E493F532AE02AF037C00A4
:101110007D0A1208F7C3EF943BEE64809481400A85
:101120000523E523700905228005E4F522F523D384
:10113000E523940AE522648094804004C28CD29016
:01114000228C
:10000E00E4F53BF53CE53B7043E53C1460181460A9
:10001E001D14602214602714602C2405702E90FF8E
:10002E002074DFF0802690FF2074EFF0801E90FF8A
:10003E002074F7F0801690FF2074FBF0800E90FF76
:10004E002074FDF0800690FF2074FEF0AE14AF1504
:10005E007C007D051208F7ED4C60030200FBE53BCA
:10006E00705AE53C605014604514604214603F14B1
:10007E00603C147047AE33AF347C007D021208F73B
:10008E00ED4C600DC3E5369464E535648094805084
:10009E001DAE08AF097C007D021208F7749E2DF587
:1000AE008274133CF583E49390FF21F0800E90FF51
:1000BE002174FFF0800690FF2174A1F07F647E0012
:1000CE001213B390FF2174FFF0AE33AF347C007D7A
:1000DE00021208F7ED64014C7008E5361536700211
:1000EE001535E53645357005F5357536C8AE14AFA0
:1000FE00157C007D051208F7ED64014C60030201CA
:10010E009FE53B705BE53C60511460461460411402
:10011E00603C146037147048AE33AF347C007D02FF
:10012E001208F7ED64014C700FC3E5369464E535A3
:10013E00648094804002801A749E252CF58274137C
:10014E00352BF583E49390FF21F080148004800218
:10015E00800090FF2174FFF0800690FF2174C1F0A3
:10016E007F647E001213B390FF2174FFF0AE33AFA5
:10017E00347C007D021208F7ED64014C7008E53600
:10018E00153670021535E53645357005F53575367B
:10019E00C8AE14AF157C007D051208F7ED64024C55
:1001AE0060030203E9E53B60030203B8E53C14601B
:1001BE006D14700302029F14700302030714700380
:1001CE000203691470030203B2240560030203B82C
:1001DE00AE33AF347C007D021208F7ED64014C7033
:1001EE0010C3E5369464E5356480948040030203C1
:1001FE0087E47B107A27F9F8AF13AE12AD11AC106D
:10020E00121229EC4D4E4F70030203B8E47B107AA4
:10021E0027F9F8AF13AE12AD11AC10020358AE337E
:10022E00AF347C007D021208F7ED64014C7010C3F0
:10023E00E5369464E535648094804003020387E4D8
:10024E007BE87A03F9F8AF13AE12AD11AC101212AF
:10025E0029EC4D4E4F70030203B8E47B107A27F958
:10026E00F8AF13AE12AD11AC10121229E47B107A56
:10027E0027F9F812092DC3E5139FFFE5129EFEE53F
:10028E00119DFDE5109CFCE47BE87A03F9F802036E
:10029E0058AE33AF347C007D021208F7ED64014C8A
:1002AE007010C3E5369464E5356480948040030293
:1002BE000387E47BE87A03F9F8AF13AE12AD11AC05
:1002CE0010121229E47BE87A03F9F812092DC3E51E
:1002DE00139FFFE5129EFEE5119DFDE5109CFCE4CB
:1002EE007B64FAF9F8121229749E2FF58274133E6C
:1002FE00F583E493547F0203ACAE33AF347C007DC0
:10030E00021208F7ED64014C700FC3E5369464E5F4
:10031E00356480948040028060E47B64FAF9F8AF23
:10032E0013AE12AD11AC10121229E47B64FAF9F877
:10033E0012092DC3E5139FFFE5129EFEE5119DFDEB
:10034E00E5109CFCE47B0AFAF9F8121229749E2F30
:10035E00F58274133EF583E4938043AE33AF347C61
:10036E00007D021208F7ED64014C7015C3E536945A
:10037E0064E53564809480400890FF2174FFF0801E
:10038E0029E47B0AFAF9F8AF13AE12AD11AC1012D4
:10039E001229749E2BF58274133AF583E49390FF21
:1003AE0021F0800690FF21749CF07F647E00121372
:1003BE00B390FF2174FFF0AE33AF347C007D021298
:1003CE0008F7ED64014C7008E536153670021535E8
:1003DE00E53645357005F5357536C8AE14AF157C66
:1003EE00007D051208F7ED64034C60030205ACE5D1
:1003FE003B600302057BE53C14605E14700302044F
:10040E00A61470030204EB14700302052C1470037F
:10041E000205752405600302057BAE33AF347C0004
:10042E007D021208F7ED64014C7021C3E536946429
:10043E00E535648094804014AE37AF387C007D057E
:10044E001208F7ED64044C7003020559749E2521C1
:10045E00F58274133520020526AE33AF347C007D51
:10046E00021208F7ED64014C7021C3E5369464E581
:10047E0035648094804014AE37AF387C007D051211
:10048E0008F7ED64034C7003020559749E251FF5A1
:10049E00827413351E020526AE33AF347C007D0206
:1004AE001208F7ED64014C7021C3E5369464E5350E
:1004BE00648094804014AE37AF387C007D051208FE
:1004CE00F7ED64024C7003020559749E251DF582EA
:1004DE007413351CF583E493547F02056FAE33AF6E
:1004EE00347C007D021208F7ED64014C7020C3E5E8
:1004FE00369464E535648094804013AE37AF387C13
:10050E00007D051208F7ED64014C7002803D749E6B
:10051E00251BF5827413351AF583E4938043AE33AD
:10052E00AF347C007D021208F7ED64014C7024C3D9
:10053E00E5369464E535648094804017AE37AF3865
:10054E007C007D051208F7ED4C700890FF2174FFBA
:10055E00F0801A749E2519F58274133518F583E40C
:10056E009390FF21F0800690FF217494F07F647EBB
:10057E00001213B390FF2174FFF0AE33AF347C0042
:10058E007D021208F7ED64014C7008E536153670E1
:10059E00021535E53645357005F5357536C8AE1498
:1005AE00AF157C007D051208F7ED64044C7054E520
:1005BE003B7043E53C14601814601D1460221460F7
:1005CE002714602C2405702E90FF21E52FF0802635
:1005DE0090FF21E530F0801E90FF21E531F080166E
:1005EE0090FF21E532F0800E90FF21749CF0800682
:1005FE0090FF2174C6F07F647E001213B390FF212A
:10060E0074FFF0053CE53C7002053BC39406E53BE8
:09061E0064809480500302001373
:0106270022B0
:1012ED00E50C7032E50D14601214601714601C24A7
:1012FD00037023753900753A4C8016753900753AAF
:10130D0070800E753900753A948006753900753AFE
:07131D00B8E4F50AF50B220C
:100AC3002094161213AF20940D0515E51570020539
:100AD30014E4F533F5343094FD30B103020BB01256
:100AE30013AF20B1080534E53470020533AE33AFDC
:100AF300347C007D021208F7AA04AB05EB4A701C94
:100B0300AE14AF15FC7D051208F7ED64014C700CB3
:100B1300852B0C852C0D1212ED020BADEB4A7016D2
:100B2300AE14AF15FC7D051208F7ED4C700885086F
:100B3300168509178074AE33AF347C007D0212082A
:100B4300F7ED4C7065AE14AF15FC7D051208F7ED9B
:100B530064034C7055AE1AAF1BFC7D0A1208E5E521
:100B6300192FFBE5183EFAAE1CAF1D7D641208E594
:100B7300EF2BFBEE3AFAAE1EAF1F7C037DE81208A3
:100B8300E5EF2BFBEE3AFAAE20AF217C277D101266
:100B930008E5EF2BFFEE3AFE3395E08F2A8E29F519
:100BA30028F527D28CE4F50EF50F30B1FDAE14AF66
:100BB300157C007D051208F7ED4C7038AE33AF3469
:100BC300FC7D021208F7ED64014C70282097111286
:100BD30013AF2097080509E509700205083097FD52
:100BE30020B0111213AF20B0080509E50970020502
:100BF3000830B0FDAE14AF157C007D051208F7ED8B
:100C030064014C7052AE33AF34FC7D021208F7ED31
:100C130064014C704220971B1213AF209712052CCE
:100C2300E52C7002052B6404452B7004F52BF52C81
:100C33003097FD20B0211213AF20B018E52C152CEE
:100C43007002152BE52CB4FF0BE52BB4FF06752BB7
:100C530000752C0330B0FDAE14AF157C007D05127A
:100C630008F7ED64024C703AAE33AF34FC7D0212E8
:100C730008F7ED64014C702A2097121213AF2097E6
:100C830009E4F513F512F511F5103097FD20B012B4
:100C93001213AF20B009E4F513F512F511F5103076
:100CA300B0FDAE14AF157C007D051208F7ED6403AB
:100CB3004C6003020E38AE33AF34FC7D021208F7EA
:100CC300ED64014C6003020E382095111213AF201E
:100CD30095080538E538700205373095FD209611E3
:100CE3001213AF209608E538153870021537309681
:100CF300FD309703020D871213AF309703020D8463
:100D0300AE37AF387C007D051208F7ED4C70120545
:100D130019E51970020518640A45187004F518F5E9
:100D230019ED64014C7012051BE51B7002051A6472
:100D33000A451A7004F51AF51BED64024C7012058E
:100D43001DE51D7002051C640A451C7004F51CF5A5
:100D53001DED64034C7012051FE51F7002051E6430
:100D63000A451E7004F51EF51FED64044C70120550
:100D730021E52170020520640A45207004F520F561
:100D8300213097FD30B003020E381213AF30B00399
:100D9300020E35AE37AF387C007D051208F7ED4CF7
:100DA3007018E519151970021518E519B4FF0BE54C
:100DB30018B4FF06751800751909ED64014C701815
:100DC300E51B151B7002151AE51BB4FF0BE51AB4DE
:100DD300FF06751A00751B09ED64024C7018E51DBA
:100DE300151D7002151CE51DB4FF0BE51CB4FF06B1
:100DF300751C00751D09ED64034C7018E51F151F64
:100E03007002151EE51FB4FF0BE51EB4FF06751E29
:100E130000751F09ED64044C7018E521152170025B
:100E23001520E521B4FF0BE520B4FF0675200075FE
:060E3300210930B0FD2290
:10134900D29090FF237481F01213C9120006C28C47
:10135900D2AF120AC312138712102C12000E80F298
:030003000213BE27
:0B13BE00B28CD290752400752500321F
:03000B00020E39A9
:100E3900C0E0C0F0C083C082C0D075D000C000C07F
:100E490001C002C003C004C005C006C007E4FFFE1C
:100E5900FDFCAB2AAA29A928A827D312098A500B75
:100E6900E50F6401450E600302100BAE16AF177C47
:100E7900007D021208F7ED4C6003020F25E524708E
:100E890062E525B40800505B900E98F82828730293
:100E99000EB0020EB6020EBC020EC6020ECC020E37
:100EA900D6020EE0020EE4D290C291800AD290D20C
:100EB900918004C290D291C292C2938026C290D2EC
:100EC900918004D290C291D292C2938016C290C2EC
:100ED90091D292D293800CC2908002D290C291C2D8
:100EE90092D293E5132409F513E43512F512E4358A
:100EF90011F511E43510F510AF13AE12AD11FCE484
:100F09007BA07A8CF9F8121229AC00AD01AE02AFC0
:100F1900038F138E128D118C10020FCCE524706291
:100F2900E525B40800505B900F37F8282873020FA5
:100F39004F020F55020F59020F63020F6D020F7313
:100F4900020F7D020F83D290C2918032D29080022B
:100F5900C290C291C292D2938028C290C291D29279
:100F6900D293801EC290C2918004C290D291D29233
:100F7900C293800EC290D2918004D290D291C29233
:100F8900C293E51324F7F513E51234FFF512E511C1
:100F990034FFF511E51034FFF510E4FFFEFDFCAB5D
:100FA90013AA12A911A810D312098A5016E51324FD
:100FB900A0F513E512348CF512E43511F511E43579
:100FC90010F510E5252401FFE43524FE7C007D0899
:100FD9001208F78C248D25E50F450E7025E52A2486
:100FE900F7F52AE52934FFF529E52834FFF528E541
:100FF9002734FFF52733500A750E00750F01C28C8F
:10100900D290853A8C850B8AD007D006D005D004BA
:10101900D003D002D001D000D0D0D082D083D0F07C
:03102900D0E032E2
:10136900D3EF9400EE940040147D6E7C00ED1D7067
:0D137900011CED4C70F7EF1F70E61E80E3C5
:011386002244
:10132400C2B37B46AF031BEF70FAD2B3E4FB30B316
:10133400117F017E001213690BEBD3940540EF7FFC
:0413440000227F0103
:011348002282
:0C126D001213247F017E001213697FCC55
:10127900E4FBFAC2B3053DE53D7002053CEF13926C
:10128900B3753C00753D06E53D153DAC3C70021556
:101299003C4C70F3D2B3EFC313FF0BBB00010AEB55
:0512A90064084A70CE4C
:0112AE00221D
:1012AF007D087C00C2B30FBF0000D2B30FBF000098
:1012BF000FBF0000A2B3E433C43333335480FBE9D0
:1012CF00C3134BF97E007F04EF1FAA0670011E4A5D
:0D12DF0070F6ED1D70011CED4C70C9AF01E3
:0112EC0022DF
:0813D20012126D7F4402127932
:0813DA0012126D7FBE021279B0
:10138700E4FFFE1213D21213DA1212AF8F3B1212BE
:06139700AFEFFEE53BFF95
:01139D00222D
:100628000208D0E86480F8E933E83360110460F028
:10063800ED33EC337009E8FCE9FDEAFEEBFF220438
:1006480060DED3EB9FEA9EE99DE8C2E78CF0C2F733
:1006580095F0400CE8CCF8E9CDF9EACEFAEBCFFBFF
:1006680012089B85D0F05804700320D5B3E80470B5
:10067800075002B2D50208DA92D5EC0460F7E4CC50
:10068800C0E0C398F8603B94186008400DD0E0FBC8
:100698000208B2E4FBFAC9FC8028E830E406E4C9A1
:1006A800FBE4CAFCE830E305E4C9CACBFCE854071C
:1006B8006010F8C3E913F9EA13FAEB13FBEC13FC27
:1006C800D8F130F52FC3E49CFCEF9BFFEE9AFEEDCA
:1006D80099FDD0E0FBEF4E4D4C701222DB0302086F
:1006E800D7EC2CFCEF33FFEE33FEED33FDED30E7B6
:1006F800EB0208B2EF2BFFEE3AFEED39FDD0E0FB3E
:1007080050130BBB00030208DAED13FDEE13FEEFE6
:0807180013FFEC13FC0208B210
:10072000EC4D6011E8497017ED33EC3304600DE4D3
:10073000FCFFFEFD22E933E8330470F80208D01212
:10074000089B58046009E4CC248150062850090213
:1007500008DA2840030208D7C0E0EB4A7044B980A9
:1007600006D0E0FB0208C6EF4E701CBD8008EBFF10
:10077000EAFEE9FD80EBE98DF0A4FEE5F002080950
:10078000E9CDF9EAFEEBFFEF89F0A4FCE5F0CE89B4
:10079000F0A42EFFE435F0CD89F0A42DFEE435F071
:1007A0008067EF4E7005BD80D780C3EF8BF0A4AC9F
:1007B000F0EE8BF0A42CFCE435F0F8EF8AF0A42CDA
:1007C000E5F038FCE433CB8DF0A42CFCE5F03BF8ED
:1007D000EE8AF0A42CFCE5F038F8E433CF89F0A4DD
:1007E0002CFCE5F038CF3400CE89F0A42FFFE5F0E3
:1007F0003EFEE433C98DF0A42EFEE5F039CD8AF03B
:10080000A42FFFE5F03EFEE43DFD33D0E0FB5007B2
:100810000BBB000F0208DAEC2CFCEF33FFEE33FECB
:06082000ED33FD0208B2F9
:1008260075F020800E75F010800575F0087D007E4D
:10083600007F003392D530D50312097CEC3340108B
:10084600EF33FFEE33FEED33FDEC33FCD5F0ED2256
:0E085600E5F0247EA2D513CC92E7CDCEFF2292
:10086400EDD2E7CD33EC3392D524814006E4FFFE8C
:10087400FDFC22FCE4CFCECDCC24E0501174FF80EB
:10088400EDC3CC13CCCD13CDCE13CECF13CF047088
:07089400F030D5DE02097C03
:10089B00E9D2E7C933E833F892D5EDD2E7CD33ECA3
:0708AB0033FC5002B2D5221C
:1008B200EC30E7100FBF000C0EBE00080DBD0004A7
:1008C2000BEB6014A2D5EB13FCED92E7FD2274FF53
:1008D200FCFDFEFF22E480F8A2D574FF13FC7D80AC
:0308E200E480EFC0
:10114D00021349E493A3F8E493A34003F68001F25C
:10115D0008DFF48029E493A3F85407240CC8C333A3
:10116D00C4540F4420C8834004F456800146F6DF72
:10117D00E4800B01020408102040809011CDE47E24
:10118D00019360BCA3FF543F30E509541FFEE49367
:10119D00A360010ECF54C025E060A840B8E493A32E
:1011AD00FAE493A3F8E493A3C8C582C8CAC583CA59
:1011BD00F0A3C8C582C8CAC583CADFE9DEE780BE11
:0112280000C5
:1008E500EF8DF0A4A8F0CF8CF0A428CE8DF0A42E27
:0208F500FE22E1
:1008F700C2D5EC30E709B2D5E4C39DFDE49CFCEE1C
:1009070030E715B2D5E4C39FFFE49EFE1209A0C3EA
:10091700E49DFDE49CFC80031209A030D507C3E4E5
:060927009FFFE49EFE228A
:10092D00E88FF0A4CC8BF0A42CFCE98EF0A42CFC69
:10093D008AF0EDA42CFCEA8EF0A4CDA8F08BF0A4E7
:10094D002DCC3825F0FDE98FF0A42CCD35F0FCEB46
:10095D008EF0A4FEA9F0EB8FF0A4CFC5F02ECD390B
:0F096D00FEE43CFCEAA42DCE35F0FDE43CFC2278
:10122900C2D5E830E70FB2D5E4C39BFBE49AFAE4F0
:1012390099F9E498F8EC30E717B2D512125F120A5F
:1012490031E4C39BFBE49AFAE499F9E498F8800342
:10125900120A3130D50DE4C39FFFE49EFEE49DFDE3
:04126900E49CFC22E3
:0E097C00C3E49FFFE49EFEE49DFDE49CFC228C
:10098A00EB9FF5F0EA9E42F0E99D42F0EC6480C8E4
:06099A0064809845F02284
:1009A000BC000BBE0029EF8DF084FFADF022E4CC3B
:1009B000F875F008EF2FFFEE33FEEC33FCEE9DEC04
:1009C000984005FCEE9DFE0FD5F0E9E4CEFD22ED4A
:1009D000F8F5F0EE8420D21CFEADF075F008EF2F94
:1009E000FFED33FD4007985006D5F0F222C398FD85
:0509F0000FD5F0EA2222
:1009F50075F008758200EF2FFFEE33FECD33CDCCB9
:100A050033CCC58233C5829BED9AEC99E58298403B
:100A15000CF582EE9BFEED9AFDEC99FC0FD5F0D618
:100A2500E4CEFBE4CDFAE4CCF9A88222B800C1B942
:100A35000059BA002DEC8BF084CFCECDFCE5F0CB80
:100A4500F97818EF2FFFEE33FEED33FDEC33FCEBB9
:100A550033FB10D703994004EB99FB0FD8E5E4F974
:100A6500FA227818EF2FFFEE33FEED33FDEC33FC61
:100A7500C933C910D7059BE99A4007EC9BFCE99A55
:100A8500F90FD8E0E4C9FAE4CCFB2275F010EF2F9A
:100A9500FFEE33FEED33FDCC33CCC833C810D7079A
:100AA5009BEC9AE899400AED9BFDEC9AFCE899F8D5
:0E0AB5000FD5F0DAE4CDFBE4CCFAE4C8F92268
:00000001FF
