:03000000020653A2
:0C065300787FE4F6D8FD75812002069A3D
:1006DF005761746572206C6576656C3A0020006313
:1006EF006D0053746174653A004D616E756C202016
:1006FF0020202000204175746F20202020200057DB
:10070F00617465725F483A00202000636D202020DD
:0B071F00200057617465725F4C3A00C7
:06000300010A0C010B08CC
:0C08C100C2AF53E71843E70143E7802271
:0908D80053E77FE4F5E6D2AF22FC
:0B08CD001208C175E64675E6B900226E
:10085E00AD07AC06C2AF8CE3EDF5E453E5F843E526
:0C086E00011208CD1208D8D2AFAFE22270
:1008AC00EE54FEFEF5E3E4F5E453E5F843E50312FC
:0508BC0008CD0208D880
:10087A00AB07AA06C2AF8AE3EBF5E453E5F843E512
:0C088A00028DE21208CD1208D8D2AF2275
:1007A300D293C290C293D291D290C290D291D2905E
:1007B300C290C291D290C290D291D290E4FFD290D3
:1007C300C290ED25E0FDA291E43342050FBF08EE90
:0607D300D293EDFF7E0051
:0107D90022FD
:0B0896007C00E4FF1208457FDC7E05BB
:0B08A100EF1FAC0670011E4C70F62229
:1008330075F00A8475F00A84E5F02430FDE433FC96
:020843007F0133
:10084500AB05C2A6EF24FF92A78B80C2A4D2A67FD8
:09085500017E001208A1C2A622D6
:0607DA007BFF7A0679ECBA
:1007E0008B148A158916AB14AA15A9161202DE609D
:1007F00015FD7C007F0112084574012516F516E4ED
:070800003515F51580E0221B
:100807007D011208967D381208967D0C7C00E4FF66
:100817001208457D067C00E4FF1208457DD07C0068
:0C082700E4FF1208457FDC7E050208A1FA
:10035A00E50970787D80FCFF1208457BFF7A0679F3
:10036A00DF1207E07D8C7C00E4FF120845E508D324
:10037A0094094007E50812083380031207DA7D8DD5
:10038A007C00E4FF120845E5081208377D8E7C00E0
:10039A00E4FF1208457BFF7A0679EE1207E07DC07A
:1003AA007C00E4FF1208457BFF7A0679F11207E028
:1003BA007DC67C00E4FF1208457BFF2002077A060F
:1003CA0079F80204A37A0779030204A37D807C00EA
:1003DA00E4FF1208457BFF7A07790E1207E07D8851
:1003EA007C00E4FF120845E509B4010E30000B7BDE
:1003FA00FF7A0779171207E080287D887C00E4FFDE
:10040A00120845E50AD394094007E50A1208338021
:10041A00031207DA7D897C00E4FF120845E50A1217
:10042A0008377D8A7C00E4FF1208457BFF7A07794A
:10043A001A1207E07DC07C00E4FF1208457BFF7AB0
:10044A000779211207E0E509B402173000147DC8C4
:10045A007C00E4FF1208457BFF7A0779171207E050
:10046A0080287DC87C00E4FF120845E50BD3940977
:10047A004007E50B12083380031207DA7DC97C00B6
:10048A00E4FF120845E50B1208377DCA7C00E4FF39
:0D049A001208457BFF7A07791A1207E0224D
:1004A7002095237F787E031208A1209519209505B2
:1004B70012035A80F8E5092401FFE433FE7C007D2E
:1004C700031202F78D0920B3527F787E031208A129
:1004D70020B34820B30512035A80F8E509B4011682
:1004E700E50AC394645002050A7F007E201208AC17
:1004F700AD0A7E20801CE509B4021CE50A14FFE55D
:100507000BC39F5002050B7F007E221208ACAD0B78
:100517007E2212087A8004B202D2A520B45D7F78C9
:100527007E031208A120B45320B40512035A80F8A1
:10053700E50964017024E50B2401FFE433FED3E5EC
:100547000A9FEE6480F87480984002150A7F007E47
:10055700201208ACAD0A7E208019E509B40217E520
:100567000BD394004002150B7F007E221208ACAD1E
:0C0577000B7E2202087A200202B2A522AC
:10076800300231E508C3950A4006D2A5C2B080021E
:10077800D2B0E508D3950B5006C2A5C2B18002D20B
:10078800B1E508C3950A5006E508950B5003D20158
:0B07980022C20122C201D2B1D2B02265
:10058300E4F513F512F511F510D2A5758901758CF3
:100593003C758AB0D2A9D28CD2AF1208077F007EF5
:1005A3002012085E8F0A7F007E2212085E8F0BE501
:1005B3000AD39463500DE50B94635007E50BC39581
:1005C3000A4006750A0E750B07E50CC3940A501111
:1005D300050C1207A3EF250EF50EEE350DF50D8074
:1005E30063E4F50CAE0DAF0EFC7D0A1202F7AC0707
:1005F300E41202298F138E128D118C10E4FFFEFD7D
:100603007C40AB13AA12A911A8101201A6602D40B9
:100613002BE4FFFEFD7CC0AB13AA12A911A8101294
:1006230000157B667A66792678401201098F138E4E
:10063300128D118C1012025D8F088003E4F508E41B
:10064300F50DF50E12035A1204A71207680205CC22
:03000B0002072ABF
:10072A00C0E0C0F0C0D0758C3C758AB0050FE50FEB
:10073A0075F00584E5F07002B200E50F75F00A84E1
:10074A00E5F07009300104B2968002D296E50FD323
:0E075A0094134003750F00D0D0D0F0D0E032E1
:10000E000202C9E86480F8E933E83360110460F055
:10001E00ED33EC337009E8FCE9FDEAFEEBFF220458
:10002E0060DED3EB9FEA9EE99DE8C2E78CF0C2F753
:10003E0095F0400CE8CCF8E9CDF9EACEFAEBCFFB1F
:10004E0012029485D0F05804700320D5B3E80470E2
:10005E00075002B2D50202D392D5EC0460F7E4CC7D
:10006E00C0E0C398F8603B94186008400DD0E0FBE8
:10007E000202ABE4FBFAC9FC8028E830E406E4C9CE
:10008E00FBE4CAFCE830E305E4C9CACBFCE854073C
:10009E006010F8C3E913F9EA13FAEB13FBEC13FC47
:1000AE00D8F130F52FC3E49CFCEF9BFFEE9AFEEDEA
:1000BE0099FDD0E0FBEF4E4D4C701222DB03020295
:1000CE00D0EC2CFCEF33FFEE33FEED33FDED30E7DD
:1000DE00EB0202ABEF2BFFEE3AFEED39FDD0E0FB6B
:1000EE0050130BBB00030202D3ED13FDEE13FEEF14
:0800FE0013FFEC13FC0202AB3E
:100106000202D3EC5D046005E8590470030202C9DB
:10011600120294580460F6EC4860F2EC7004FDFE9E
:10012600FF22C860DB2481C85009C39860025006CC
:100136000202D09850CAF582E9294B4A7005AB8273
:100146000202BF75F0007C1A7880C3EF9BEE9AED31
:1001560099400DC3EF9BFFEE9AFEED99FDE842F044
:10016600DC23ACF0D0E0FFD0E0FED0E0FDAB822097
:10017600E7101BEB60BAEC2CFCEF33FFEE33FEED21
:1001860033FD0202ABE803F830E705C0F075F00076
:10019600EF2FFFEE33FEED33FD40B830E7C280AA05
:1001A60074F8CC6480CCC86480C8F58204604FC300
:1001B600EB9FF5F0EA9E42F0E99D42F0E89C45F09F
:1001C600603C501DE5825FFFE582D313CB5BCBF429
:1001D6002B5582FB50280ABA002409B90020088052
:1001E6001DE5825BFBE582D313CF5FCFF4C3132FEC
:1001F6005582FF50090EBE00050DBD00010CC3EB74
:100206009FF5F0EA9E42F0E99D42F0E89C45F060D9
:0902160007CC4820E701B3EC22FB
:10021F0075F020800E75F010800575F0087D007E5A
:10022F00007F003392D530D50312034CEC334010CE
:10023F00EF33FFEE33FEED33FDEC33FCD5F0ED2263
:0E024F00E5F0247EA2D513CC92E7CDCEFF229F
:10025D00EDD2E7CD33EC3392D524814006E4FFFE99
:10026D00FDFC22FCE4CFCECDCC24E0501174FF80F8
:10027D00EDC3CC13CCCD13CDCE13CECF13CF047095
:07028D00F030D5DE02034C46
:10029400E9D2E7C933E833F892D5EDD2E7CD33ECB0
:0702A40033FC5002B2D52229
:1002AB00EC30E7100FBF000C0EBE00080DBD0004B4
:1002BB000BEB6014A2D5EB13FCED92E7FD2274FF60
:1002CB00FCFDFEFF22E480F8A2D574FF13FC7D80B9
:0302DB00E480EFCD
:10065F00020583E493A3F8E493A34003F68001F229
:10066F0008DFF48029E493A3F85407240CC8C3339C
:10067F00C4540F4420C8834004F456800146F6DF6B
:10068F00E4800B0102040810204080900003E47EF8
:10069F00019360BCA3FF543F30E509541FFEE49360
:1006AF00A360010ECF54C025E060A840B8E493A327
:1006BF00FAE493A3F8E493A3C8C582C8CAC583CA52
:1006CF00F0A3C8C582C8CAC583CADFE9DEE780BE0A
:0100090000F6
:1002DE00BB010689828A83E0225002E722BBFE021E
:0902EE00E32289828A83E4932251
:1002F700BC000BBE0029EF8DF084FFADF022E4CCEB
:10030700F875F008EF2FFFEE33FEEC33FCEE9DECB3
:10031700984005FCEE9DFE0FD5F0E9E4CEFD22EDF9
:10032700F8F5F0EE8420D21CFEADF075F008EF2F43
:10033700FFED33FD4007985006D5F0F222C398FD34
:050347000FD5F0EA22D1
:0E034C00C3E49FFFE49EFEE49DFDE49CFC22C2
:00000001FF
